:100000004DC0000068C0000066C0000064C0000071
:1000100062C0000060C000005EC000005CC0000064
:100020005AC0000058C0000056C0000054C0000074
:1000300052C0000050C300004EC000004CC0000081
:100040004AC0000048C0000046C0000044C0000094
:1000500042C0000040C000003EC000003CC00000A4
:100060003AC0000038C0000036C0000034C00000B4
:1000700032C0000030C000002EC000002CC00000C4
:100080002AC0000028C0000026C00000BE02BB023B
:10009000B802B502B202AF02AC02A90211241FBE1F
:1000A000CFEFD0E4DEBFCDBF11E0A0E0B1E0E2E3EE
:1000B000FCE000E00BBF02C007900D92AA30B10730
:1000C000D9F721E0AAE0B1E001C01D92A734B20740
:1000D000E1F74CD4ACC594CF8F929F92AF92BF9270
:1000E000CF92DF92EF92FF920F931F93CF93DF9304
:1000F000CDB7DEB728970FB6F894DEBF0FBECDBFE1
:10010000DC0111968C911197819589839C919A833A
:100110001896CC901897D12C9601280F311D87FD89
:100120003A952830310508F05AC01996AC901997C5
:10013000B12C7501E90EF11C97FDFA9480E1E816E7
:10014000F10408F04CC0AD01FE013196CE010796D6
:100150008F014D0124C0D40113962C912195D80113
:1001600012962C93D4011296FC90D8011396FC920F
:10017000D601A20FB11D27FDBA959D01189778F5FC
:10018000D501AF0DB11DF7FCBA957D01B2E08B0E24
:10019000911C0E5F1F4FA0E1EA16F10400F52295B5
:1001A0003295307F3227207F3227260F371F2E0DC2
:1001B0003F1DD9012C91211112C00817190759F6BA
:1001C0009E01275F3F4F8081DA018C9381811196D8
:1001D0008C9332964E5F5F4FE217F307A1F7289694
:1001E0000FB6F894DEBF0FBECDBFDF91CF911F9148
:1001F0000F91FF90EF90DF90CF90BF90AF909F90C6
:100200008F9008958F929F92AF92BF92CF92DF927C
:10021000EF92FF920F931F93CF93DF93CDB7DEB78B
:1002200028970FB6F894DEBF0FBECDBFDC018C91CE
:100230008F5F898311969C9111979A831896CC9021
:100240001897D12C9601280F311D87FD3A9528303B
:10025000310508F05AC01996AC901997B12C750168
:10026000E90EF11C97FDFA9480E1E816F10408F01C
:100270004CC0AD01FE013196CE0107968F014D01B4
:1002800024C0D40112962C912F5FD80112962C9382
:10029000D4011396FC90D8011396FC92D601A20FBC
:1002A000B11D27FDBA959D01189778F5D501AF0DC1
:1002B000B11DF7FCBA957D01B2E08B0E911C0E5F6B
:1002C0001F4FA0E1EA16F10400F522953295307F28
:1002D0003227207F3227260F371F2E0D3F1DD901D1
:1002E0002C91211112C00817190759F69E01275F9A
:1002F0003F4F8081DA018C93818111968C933296E5
:100300004E5F5F4FE217F307A1F728960FB6F894F8
:10031000DEBF0FBECDBFDF91CF911F910F91FF9038
:10032000EF90DF90CF90BF90AF909F908F90089507
:10033000FC01208121110DC09C0120593F4F908963
:1003400091110AC07096E217F307C9F780E090E0B8
:10035000089581E090E0089581E090E008951816F6
:1003600019065CF00895000021503109E1F74F5F54
:100370005F4F8417950719F4089540E050E027E097
:1003800033E0F1CF5E9888B95F9A00005F9882E011
:1003900090E0E5CF089584E690E0E1DF88E3F2DFC6
:1003A00086E0F0DF8FE0EEDF81E0ECDF8AE090E0D6
:1003B000D6CF0895EAE7F0E08081806C80830895CD
:1003C000883048F4ECE7F0E09081987F908390814A
:1003D0008770892B80830895F3DFEAE7F0E080815E
:1003E00080648083808186FDFDCF8091780090912C
:1003F000790008952D98AFE0B0E0FC010A2E02C00C
:10040000F695E7950A94E2F7FE2FF170E0FF04C03D
:10041000E5B1EF2BE5B901C02898FB010A2E02C017
:10042000F695E7950A94E2F7FE2FF170E0FF05C01C
:10043000E5B1FF0FFE2BF5B901C02998FA010A2E8C
:1004400002C0F695E7950A94E2F7FE2FF170E0FFFF
:1004500006C0E5B1FF0FFF0FFE2BF5B901C02A98CA
:10046000F9010A2E02C0F695E7950A94E2F7FE2FED
:10047000F170E0FF07C0E5B1FF0FFF0FFF0FFE2B8C
:10048000F5B901C02B98EAE0F0E000003197E9F7F8
:100490002F9AEAE0F0E000003197E9F72F98EAE0C0
:1004A000F0E000003197E9F7119708F0A6CF2D9AF8
:1004B0000895FC01808191818436910518F481E0D2
:1004C000858307C0893E934018F082E0858301C090
:1004D0001582828193818436910518F483E08683A6
:1004E0000AC0893E934018F084E0868304C01682D7
:1004F00008951682089585818111FBCF0895CF93C9
:10050000DF93EC0180E068DF9983888381E064DF1A
:100510009B838A8380B183FB992790F981E08927A7
:100520008C83DF91CF9108958F929F92AF92BF926B
:10053000CF92DF92EF92FF920F931F93CF93DF93AF
:10054000CDB7DEB78770482F50E0FA01EA5BFF4F66
:1005500044C24FEF50E814C04FEF50E411C04FEFCA
:1005600050E20EC04FEF50E10BC04FEF58E008C013
:100570004FEF54E005C04FEF52E002C04FEF51E0A3
:100580000F2EFFE08F2E912CF02D8C0E9D1E10E172
:10059000819F800C911C11249A01E0E0F0E06FEF44
:1005A0007FEF8FEF9FEFCC24C394D12C5F01A8E0A5
:1005B000AA0EB11C8401D4011896FC90F0FE0CC068
:1005C00076010E2E02C0EE0CFF1C0A94E2F7E094B6
:1005D000F0946E217F211BC0F2FE0CC076010E2E1E
:1005E00002C0EE0CFF1C0A94E2F7E094F0942E2176
:1005F0003F210DC0F1FE0BC076010A2C02C0EE0CAB
:10060000FF1C0A94E2F7E094F0946E217F21D80158
:100610001C91BFEF8B1A9B0A10FF0CC086010E2E97
:1006200002C0000F111F0A94E2F700951095802375
:1006300091231AC012FF0CC086010E2E02C0000FBB
:10064000111F0A94E2F700951095402351230CC026
:1006500011FF0AC0860102C0000F111FAA94E2F721
:1006600000951095802391233196E830F10509F02B
:100670009DCFC0DEDF91CF911F910F91FF90EF9042
:10068000DF90CF90BF90AF909F908F9008958BE0B8
:10069000809381008DE790E090938900809388009B
:1006A00082E080936F001092850010928400809108
:1006B000060190910701A0910801B0910901809372
:1006C000110190931201A0931301B09314018FB7FD
:1006D00080688FBF08951F920F920FB60F9211245A
:1006E0008F939F93AF93BF938091110190911201CB
:1006F000A0911301B09114010197A109B109809350
:10070000110190931201A0931301B0931401892B4E
:100710008A2B8B2B99F481E080931501809106013F
:1007200090910701A0910801B091090180931101F6
:1007300090931201A0931301B0931401BF91AF9154
:100740009F918F910F900FBE0F901F9018956093FF
:10075000060170930701809308019093090160934B
:100760001101709312018093130190931401089565
:1007700080910E0190910F0184369105F9F48091DA
:10078000180190911901BBDE809118019091190117
:1007900090DE8091410190914201209118013091A9
:1007A00019013093420120934101909319018093E4
:1007B000180110920F0110920E0108950196909366
:1007C0000F0180930E010895CF93DF93CDB7DEB76D
:1007D000C058D1090FB6F894DEBF0FBECDBF8091CF
:1007E0000C0190910D01449729F520911A01309147
:1007F0001B0180E8F901DE01119601900D928A95A6
:10080000E1F7E0913F01F091400180E8D9010190CA
:100810000D928A95E1F7A0913F01B091400180E8E7
:10082000FE01319601900D928A95E1F710920D012B
:1008300010920C01E0911A01F0911B0180910C01C2
:1008400090910D019C012F5F3F4F30930D0120933C
:100850000C012DB73EB7205831090FB6F8943EBFB2
:100860000FBE2DBFADB7BEB7119690E801900D92A7
:100870009A95E1F759DE0FB6F894DEBF0FBECDBFF3
:10088000C058DF4F0FB6F894DEBF0FBECDBFDF916B
:10089000CF91089580910A0190910B01883C9105B8
:1008A00089F0803921E0920769F0883522E09207CB
:1008B00049F0803223E0920729F0883E23E0920736
:1008C00009F04EC0E0914101F091420186818330F0
:1008D000E1F4609116017091170180913D019091B2
:1008E0003E01FADB609116017091170180913D0184
:1008F00090913E01F1DB609116017091170180919A
:100900003D0190913E01E8DB18C0843051F46091C4
:1009100016017091170180913D0190913E01DCDB41
:100920000CC08581823049F46091160170911701E5
:1009300080913D0190913E0165DC8091160190917E
:100940001701F6DC8093100180910A0190910B0150
:10095000883E934051F410920B0110920A010895C1
:10096000019690930B0180930A01089511B88FEFBF
:1009700082B984B915B887B918B88AB91BB81ADD15
:100980000ADD87E090E032D09093420180934101EC
:1009900087E090E02BD0909319018093180180E8B4
:1009A00090E024D090931B0180931A0180E890E09E
:1009B0001DD09093400180933F0161E070E080E0A2
:1009C00090E0C5DE64DED4DE65DFFEDE80911501D9
:1009D0008823E1F310921501F6CFEE0FFF1F0024DC
:1009E000001C0BBE0790F691E02D09940F931F9306
:1009F000CF93DF938230910510F482E090E0E09194
:100A00004501F091460120E030E0A0E0B0E03097F1
:100A100019F1408151810281138148175907C8F0AB
:100A20008417950769F4109731F012960C9312977A
:100A300013961C9327C0009345011093460122C0D2
:100A40002115310519F04217530718F49A01BD0119
:100A5000EF01DF01F801DBCF21153105F9F0281B8B
:100A6000390B2430310580F48A819B816115710531
:100A700021F0FB019383828304C09093460180930D
:100A80004501FE01329644C0FE01E20FF31F81933F
:100A9000919322503109398328833AC02091430130
:100AA00030914401232B41F4209102013091030144
:100AB00030934401209343012091000130910101C2
:100AC0002115310541F42DB73EB7409104015091F5
:100AD0000501241B350BE0914301F0914401E2171D
:100AE000F307A0F42E1B3F0B2817390778F0AC0151
:100AF0004E5F5F4F2417350748F04E0F5F1F50932E
:100B00004401409343018193919302C0E0E0F0E0FF
:100B1000CF01DF91CF911F910F910895CF93DF9374
:100B2000009709F481C0FC01329713821282A091D0
:100B30004501B0914601109781F420813181820FE7
:100B4000931F20914301309144012817390751F533
:100B5000F0934401E093430167C0ED0120E030E0F1
:100B6000CE17DF0740F44A815B819E014115510594
:100B7000F1F0EA01F5CFD383C28340815181840F24
:100B8000951FC817D90759F488819981840F951F3B
:100B90000296918380838A819B819383828321152E
:100BA000310529F4F0934601E09345013DC0E90188
:100BB000FB83EA8349915991C40FD51FEC17FD07B8
:100BC00061F480819181840F951F0296E9019983D8
:100BD0008883828193819B838A83E0E0F0E0129690
:100BE0008D919C911397009719F0FD01DC01F7CFCF
:100BF0008D919C9111979D012E5F3F4F820F931F06
:100C000020914301309144012817390769F4309746
:100C100029F4109246011092450102C013821282FB
:100C2000B0934401A0934301DF91CF910895F894CC
:020C3000FFCFF4
:0A0C3200000047012000010000004F
:00000001FF
