S00E00005465747269732E737265639B
S113000045C0000060C000005EC000005CC000008D
S11300105AC0000058C0000056C0000054C0000080
S113002052C0000050C000004EC000004CC0000090
S11300304AC00000F3C0000046C0000044C00000F5
S113004042C0000040C000003EC000003CC00000B0
S11300503AC0000038C0000036C0000034C00000C0
S113006032C0000030C000002EC000002CC00000D0
S11300702AC0000028C0000026C0000024C00000E0
S113008022C0000020C000001EC0000011241FBEBA
S1130090CFEFD0E4DEBFCDBF11E0A0E0B1E0ECE7EC
S11300A0F5E000E00BBF02C007900D92AA30B10743
S11300B0D9F721E0AAE0B1E001C01D92A833B2074C
S11300C0E1F714D159C29CCF181619065CF00895B3
S11300D0000021503109E1F74F5F5F4F8417950706
S11300E019F4089540E050E027E033E0F1CF5E9842
S11300F088B95F9A00005F9882E090E0E5CF0895A8
S113010084E690E0E1DF88E3F2DF86E0F0DF8FE071
S1130110EEDF81E0ECDF8AE090E0D6CF0895EAE7F5
S1130120F0E08081806C80830895883048F4ECE7A7
S1130130F0E09081987F908390818770892B8083F1
S11301400895F3DFEAE7F0E08081806480838081B2
S113015086FDFDCF80917800909179000895FC018F
S1130160808191818436910518F481E0858307C0EC
S1130170893E934018F082E0858301C01582828114
S113018093818436910518F483E086830AC0893EFE
S1130190934018F084E0868304C016820895168282
S11301A0089585818111FBCF0895CF93DF93EC01EE
S11301B080E0C7DF9983888381E0C3DF9B838A83E0
S11301C080B183FB992790F981E089278C83DF91A3
S11301D0CF9108958BE0809381008DE790E0909318
S11301E089008093880082E080936F0010928500DC
S11301F0109284008091060190910701A09108015A
S1130200B091090180930A0190930B01A0930C0112
S1130210B0930D018FB780688FBF08951F920F921E
S11302200FB60F9211248F939F93AF93BF93809136
S11302300A0190910B01A0910C01B0910D0101975D
S1130240A109B10980930A0190930B01A0930C01B9
S1130250B0930D01892B8A2B8B2B99F481E0809329
S11302600E018091060190910701A0910801B091BF
S1130270090180930A0190930B01A0930C01B093A0
S11302800D01BF91AF919F918F910F900FBE0F9071
S11302901F901895609306017093070180930801DD
S11302A09093090160930A0170930B0180930C01F0
S11302B090930D01089580910F019091100175DFC5
S11302C080910F01909110014ADF80913201909149
S11302D0330120910F0130911001309333012093A9
S11302E032019093100180930F01089511B88FEF9C
S11302F082B987B918B88AB91BB811DF01DF87E062
S113030090E019D0909333018093320187E090E01C
S113031012D09093100180930F016AEF70E080E097
S113032090E0B8DF57DFC7DF80910E018823E1F347
S113033010920E01F8CF0F931F93CF93DF93823067
S1130340910510F482E090E0E0913601F0913701DC
S113035020E030E0A0E0B0E0309719F14081518115
S11303600281138148175907C8F08417950769F467
S1130370109731F012960C93129713961C9327C082
S1130380009336011093370122C02115310519F06D
S11303904217530718F49A01BD01EF01DF01F80178
S11303A0DBCF21153105F9F0281B390B2430310539
S11303B080F48A819B816115710521F0FB0193838F
S11303C0828304C09093370180933601FE013296F4
S11303D044C0FE01E20FF31F81939193225031092F
S11303E0398328833AC02091340130913501232B7D
S11303F041F420910201309103013093350120939F
S1130400340120910001309101012115310541F49D
S11304102DB73EB74091040150910501241B350BC3
S1130420E0913401F0913501E217F307A0F42E1B9B
S11304303F0B2817390778F0AC014E5F5F4F241744
S1130440350748F04E0F5F1F509335014093340138
S11304508193919302C0E0E0F0E0CF01DF91CF916E
S11304601F910F910895CF93DF93009709F481C0F2
S1130470FC01329713821282A0913601B0913701A8
S1130480109781F420813181820F931F20913401D0
S1130490309135012817390751F5F0933501E09370
S11304A0340167C0ED0120E030E0CE17DF0740F4EF
S11304B04A815B819E0141155105F1F0EA01F5CFB6
S11304C0D383C28340815181840F951FC817D907F4
S11304D059F488819981840F951F029691838083B2
S11304E08A819B81938382832115310529F4F093BA
S11304F03701E09336013DC0E901FB83EA8349916A
S11305005991C40FD51FEC17FD0761F480819181C7
S1130510840F951F0296E9019983888382819381D0
S11305209B838A83E0E0F0E012968D919C9113976F
S1130530009719F0FD01DC01F7CF8D919C91119783
S11305409D012E5F3F4F820F931F20913401309104
S113055035012817390769F4309729F410923701C7
S11305601092360102C013821282B0933501A09317
S10F05703401DF91CF910895F894FFCF7F
S10D057C0000380120000100000017
S9030000FC
