S00E00005465747269732E737265639B
S11300004DC0000069C0000067C0000065C000006A
S113001063C0000061C000005FC000005DC000005C
S11300205BC0000059C0000057C0000055C000006C
S113003053C0000066C500004FC000004DC0000062
S11300404BC0000049C0000047C0000045C000008C
S113005043C0000041C000003FC000003DC000009C
S11300603BC0000039C0000037C0000035C00000AC
S113007033C0000031C000002FC000002DC00000BC
S11300802BC0000029C0000027C00000D404D10404
S1130090CE04CB04C804C504C204BF0411241FBE8B
S11300A0CFEFD0E4DEBFCDBF11E0A0E0B1E0E0E5EA
S11300B0F4E100E00BBF02C007900D92A633B10734
S11300C0D9F721E0A6E3B1E001C01D92A337B2073E
S11300D0E1F772D70C94260A93CFAF92BF92CF92D6
S11300E0DF92FF920F931F93CF93DF93DC01189657
S11300F08C911897082E000C990B2C916C01C20E50
S1130100D11C27FDDA9496012830310508F051C03E
S11301101996FC901997AF2C0F2C000CBB08119664
S11301204C911197E501C40FD11D47FDDA95AE013D
S11301304F5F5F4F40315105E0F522953295307F96
S11301403227207F3227260F371FF901E40FF51FCE
S1130150208121112EC0FD018D010A5F1F4F2281D4
S1130160AC01420F511D27FD5A954830510508F541
S113017023816501C20ED11C27FDDA9496012F5FFD
S11301803F4F20313105A8F442955295507F5427B2
S1130190407F5427460F571F420F531FEA012881FF
S11301A0211107C03296E017F107C9F6F3941996A6
S11301B0FC92DF91CF911F910F91FF90DF90CF9030
S11301C0BF90AF9008958F929F92AF92BF92CF92BB
S11301D0DF92EF92FF920F931F93CF93DF93CDB7EC
S11301E0DEB728970FB6F894DEBF0FBECDBFDC0193
S11301F011969C91119799838C9181958A83189675
S1130200CC9018970C2C000CDD089601290F311D99
S113021097FD3A952830310508F05CC01996AC90EA
S113022019970A2C000CBB087501E80EF11C87FD18
S1130230FA9480E1E816F10408F04CC0AD01FE0127
S11302403196CE0107968F014D0124C0D401139637
S11302502C91D80112962C93D4011296FC90F1940F
S1130260D8011396FC92D601A20FB11D27FDBA95B1
S11302709D01189778F5D501AF0DB11DF7FCBA951E
S11302807D01B2E08B0E911C0E5F1F4FA0E1EA16B8
S1130290F10400F522953295307F3227207F3227F2
S11302A0260F371F2E0D3F1DD9012C91211112C08D
S11302B00817190759F69E01275F3F4F8081DA011D
S11302C08C93818111968C9332964E5F5F4FE21727
S11302D0F307A1F728960FB6F894DEBF0FBECDBF83
S11302E0DF91CF911F910F91FF90EF90DF90CF900E
S11302F0BF90AF909F908F900895AF92BF92CF928E
S1130300DF92FF920F931F93CF93DF93DC01189634
S1130310FC9018974F2D0F2C000C550B8C919A01C3
S1130320280F311D87FD3A952150310928303105B8
S113033008F050C019968C911997082E000C990B4F
S11303401196EC9111976C01CE0ED11CE7FDDA9455
S1130350F601E031F10508F03DC022953295307F79
S11303603227207F3227260F371FE20FF31F208109
S1130370211130C0FD015D0106E0A00EB11C2281F7
S1130380EA01C20FD11D27FDDA959E0121503109E2
S113039028303105F8F413816C01C10ED11C17FD0E
S11303A0DA94860100311105A8F422953295307F44
S11303B03227207F3227260F371F2C0D3D1DE901E0
S11303C02881211107C03296EA15FB05C1F6FA947B
S11303D01896FC92DF91CF911F910F91FF90DF90BF
S11303E0CF90BF90AF900895AF92BF92CF92DF921B
S11303F0FF920F931F93CF93DF93DC011896FC9029
S113040018974F2D0F2C000C550B8C919A01280F27
S1130410311D87FD3A952F5F3F4F2830310508F095
S113042050C019968C911997082E000C990B1196AF
S1130430EC9111976C01CE0ED11CE7FDDA94F60114
S1130440E031F10508F03DC022953295307F322726
S1130450207F3227260F371FE20FF31F208121113F
S113046030C0FD015D0106E0A00EB11C2281EA014D
S1130470C20FD11D27FDDA959E012F5F3F4F283013
S11304803105F8F413816C01C10ED11C17FDDA9407
S1130490860100311105A8F422953295307F322768
S11304A0207F3227260F371F2C0D3D1DE90128819F
S11304B0211107C03296EA15FB05C1F6F39418968C
S11304C0FC92DF91CF911F910F91FF90DF90CF901D
S11304D0BF90AF900895FC01208121110DC09C01B3
S11304E020593F4F908991110AC07096E217F30783
S11304F0C9F780E090E0089581E090E0089581E0FC
S113050090E00895CF93DF93EC01DC01089641E07D
S11305102C91E8850E2E000CFF0BE20FF11D27FD38
S1130520FA9511963C9111972985E295F295F07F01
S1130530FE27E07FFE27E60FF71FE30FF11D37FDCF
S1130540FA95E20FF11D27FDFA9540831296A8173C
S1130550B907F1F6DF91CF910895CF93DF93DC01D2
S11305606FE070E081E050E0EB01FD01E60FF71F62
S11305709B0120583F4F2A0F3B1F482F9081911118
S113058001C0452F7096E217F307C1F7442321F108
S1130590161617063CF5AE01415051094A0F5B1F70
S11305A0BD01615071090BC0908191837096E2176F
S11305B0F307D1F7415051094617570799F09A01AB
S11305C020583F4FFA01F0CF10827096AE17BF0744
S11305D0D9F781E090E00AC06150710928F680E003
S11305E090E004C0FD01A058BF4FEECFDF91CF9142
S11305F00895CF92DF92EF92FF920F931F93CF93C0
S1130600DF93FC01EC01C058DF4FDC0108C01D92F0
S1130610A217B307E1F7D901C217D30721F09D014F
S1130620205F3F4FF4CF8B017B0128E0E20EF11CE9
S1130630D801DC90DB0118962C91022E000C330BB0
S11306402D0D311DD7FC3A95D8011196DC90DB01B4
S11306501996CC90AC2DCC0CBB0BAD0DB11DD7FCB9
S1130660BA9522953295307F3227207F3227280F82
S1130670391FA20FB31F2C9124602C930E5F1F4FC0
S11306800E151F05A9F6642F752F10C08D918823B0
S113069019F08081826080833196E217F307B1F705
S11306A0605F7F4FF9012C173D0729F09F01205F00
S11306B03F4FDB01EBCFDF91CF911F910F91FF9063
S11306C0EF90DF90CF9008951F93CF93DF93182F6F
S11306D08AE090E0F7D4EC01A12FB0E0AA0FBB1F91
S11306E0AA0FBB1FAA0FBB1FA25FBE4FFC019C0138
S11306F0285F3F4F9C91908311969C911197918311
S113070012963296E217F307A9F71230A1F028F4F3
S1130710112341F0113051F01DC0133089F0143011
S1130720A1F018C083E08887198618C083E0888701
S113073082E0898713C083E0888782E089870EC0BE
S113074083E0888781E0898709C083E0888781E026
S1130750898704C082E0888783E08987CE01DF919E
S1130760CF911F910895FC01AC0140585F4F21E0E7
S113077008C02193E817F907E1F7FC014817590766
S113078019F0CF014096F5CF0895181619065CF0BC
S11307900895000021503109E1F74F5F5F4F84173E
S11307A0950719F4089540E050E027E033E0F1CFD5
S11307B05E9888B95F9A00005F9882E090E0E5CF88
S11307C0089584E690E0E1DF88E3F2DF86E0F0DF7D
S11307D08FE0EEDF81E0ECDF8AE090E0D6CF089591
S11307E0EAE7F0E08081806C80830895883048F4E3
S11307F0ECE7F0E09081987F908390818770892B5B
S113080080830895F3DFEAE7F0E0808180648083E9
S1130810808186FDFDCF80917800909179000895C4
S11308202D98AFE0B0E0FC010A2E02C0F695E795E2
S11308300A94E2F7FE2FF170E0FF04C0E5B1EF2B5C
S1130840E5B901C02898FB010A2E02C0F695E79588
S11308500A94E2F7FE2FF170E0FF05C0E5B1FF0F47
S1130860FE2BF5B901C02998FA010A2E02C0F695AB
S1130870E7950A94E2F7FE2FF170E0FF06C0E5B1B8
S1130880FF0FFF0FFE2BF5B901C02A98F9010A2EBC
S113089002C0F695E7950A94E2F7FE2FF170E0FFA7
S11308A007C0E5B1FF0FFF0FFF0FFE2BF5B901C025
S11308B02B98EAE0F0E000003197E9F72F9AEAE09C
S11308C0F0E000003197E9F72F98EAE0F0E000004B
S11308D03197E9F7119708F0A6CF2D9A0895FC01F6
S11308E0808191818436910518F481E0858307C065
S11308F0893E934018F082E0858301C0158282818D
S113090093818436910518F483E086830AC0893E76
S1130910934018F084E0868304C0168208951682FA
S1130920089585818111FBCF0895CF93DF93EC0166
S113093080E068DF9983888381E064DF9B838A8316
S113094080B183FB992790F981E089278C83DF911B
S1130950CF9108958F929F92AF92BF92CF92DF92E0
S1130960EF92FF920F931F93CF93DF93CDB7DEB730
S11309708770482F50E0FA01EA5BFF4F77C34FEFCF
S113098050E814C04FEF50E411C04FEF50E20EC0D6
S11309904FEF50E10BC04FEF58E008C04FEF54E069
S11309A005C04FEF52E002C04FEF51E00F2EFFE0C1
S11309B08F2E912CF02D8C0E9D1E10E1819F800CAA
S11309C0911C11249A01E0E0F0E06FEF7FEF8FEFCC
S11309D09FEFCC24C394D12C5F01A8E0AA0EB11CD4
S11309E08401D4011896FC90F0FE0CC076010E2E02
S11309F002C0EE0CFF1C0A94E2F7E094F0946E211E
S1130A007F211BC0F2FE0CC076010E2E02C0EE0C3C
S1130A10FF1C0A94E2F7E094F0942E213F210DC0CC
S1130A20F1FE0BC076010A2C02C0EE0CFF1C0A94E6
S1130A30E2F7E094F0946E217F21D8011C91BFEF7E
S1130A408B1A9B0A10FF0CC086010E2E02C0000FE9
S1130A50111F0A94E2F700951095802391231AC080
S1130A6012FF0CC086010E2E02C0000F111F0A9443
S1130A70E2F700951095402351230CC011FF0AC0E2
S1130A80860102C0000F111FAA94E2F70095109589
S1130A90802391233196E830F10509F09DCFC0DE23
S1130AA0DF91CF911F910F91FF90EF90DF90CF9046
S1130AB0BF90AF909F908F9008958BE080938100BA
S1130AC08DE790E0909389008093880082E0809382
S1130AD06F00109285001092840080910A01909119
S1130AE00B01A0910C01B0910D0180933D019093F5
S1130AF03E01A0933F01B09340018FB780688FBF40
S1130B0008951F920F920FB60F9211248F939F9303
S1130B10AF93BF9380913D0190913E01A0913F011D
S1130B20B09140010197A109B10980933D019093CF
S1130B303E01A0933F01B0934001892B8A2B8B2B5C
S1130B4099F481E08093410180910A0190910B0115
S1130B50A0910C01B0910D0180933D0190933E0151
S1130B60A0933F01B0934001BF91AF919F918F91AA
S1130B700F900FBE0F901F90189560930A01709309
S1130B800B0180930C0190930D0160933D017093D0
S1130B903E0180933F0190934001089580913A0172
S1130BA090913B0184369105F9F480914401909130
S1130BB04501BBDE809144019091450190DE809116
S1130BC06D0190916E012091440130914501309363
S1130BD06E0120936D01909345018093440110921E
S1130BE03B0110923A010895019690933B01809342
S1130BF03A010895CF93DF93CDB7DEB7C058D1093A
S1130C000FB6F894DEBF0FBECDBF8091380190912E
S1130C103901449729F5209146013091470180E834
S1130C20F901DE01119601900D928A95E1F7E091A8
S1130C306B01F0916C0180E8D90101900D928A95C5
S1130C40E1F7A0916B01B0916C0180E8FE0131964F
S1130C5001900D928A95E1F71092390110923801B2
S1130C60E0914601F091470180913801909139015A
S1130C709C012F5F3F4F30933901209338012DB7EA
S1130C803EB7205831090FB6F8943EBF0FBE2DBFB2
S1130C90ADB7BEB7119690E801900D929A95E1F721
S1130CA059DE0FB6F894DEBF0FBECDBFC058DF4F7C
S1130CB00FB6F894DEBF0FBECDBFDF91CF9108957C
S1130CC0CF92DF92EF92FF920F931F93CF93DF9314
S1130CD0809136019091370101969093370180936A
S1130CE03601883E23E0920791F4609142017091AD
S1130CF043018091690190916A01EFD91092370103
S1130D001092360180913C018823B9F0E7C020910C
S1130D103C012111E3C0883C910579F08039A1E0C0
S1130D209A0759F08835B2E09B0739F08032E3E046
S1130D309E0719F0892B09F036C1E0916D01F091FD
S1130D406E018681833021F1843051F46091420137
S1130D50709143018091690190916A01BED918C0D4
S1130D608581823051F460914201709143018091F8
S1130D70690190916A0138DB0BC0813049F46091BC
S1130D804201709143018091690190916A01B5DA41
S1130D90E0916D01F0916E018481882349F06091A6
S1130DA04201709143018091690190916A010BDACB
S1130DB080914201909143018EDB80933C01C0916C
S1130DC06901D0916A01A985CA2EAA0FDD0889811B
S1130DD0A601480F511D87FD5A954F30510551F119
S1130DE08885082E000C990B609142017091430193
S1130DF028817C01E20EF11C27FDFA9497012295CB
S1130E003295307F3227207F3227260F371FF90192
S1130E10E40FF51F2181211138C0FE018E010A5F04
S1130E201F4F2381A601420F511D27FD5A954F30B4
S1130E305105A9F46091420170914301CE0162DB36
S1130E408091690190916A01D5D1A4D265E070E0E6
S1130E50FAD03ADC90936A01809369012CC0228114
S1130E60DC01A20FB11D27FDBA959D012295329593
S1130E70307F3227207F3227260F371F240F351F5C
S1130E80D90111962C91222389F0CE013BDB80916C
S1130E90690190916A01AED17DD265E070E0D3D052
S1130EA013DC90936A018093690105C032960E1792
S1130EB01F0709F0B6CF80914201909143014DDBA9
S1130EC040914201509143016091690170916A011E
S1130ED080916B0190916C018CDB65C080916B01FA
S1130EE090916C0140DCE0916D01F0916E01848180
S1130EF0882309F458C010923C01E12CF12C05E040
S1130F0010E01FC0E0914201F0914301EC0FFD1F7E
S1130F10EC0DFD1D10823ED2B80195D0D5DB909327
S1130F206A0180936901BFEFCB1ADB0AE0E1CE16B8
S1130F30D10441F7FFEFEF1AFF0A28E0E216F104AB
S1130F4031F1C12CD12CE701C295D295D07FDC2799
S1130F50C07FDC27D7CFE0916B01F0916C01E20FE9
S1130F60F31FE80FF91F1082E0914601F091470149
S1130F70E20FF31FE80FF91F1082019680319105EB
S1130F8051F74F5F5F4F4830510519F40CC040E0F2
S1130F9050E080E090E09A0122953295307F32272C
S1130FA0207F3227D8CFDF91CF911F910F91FF90EF
S1130FB0EF90DF90CF90089511B88FEF82B984B984
S1130FC015B887B918B88AB91BB80ADCFADB87E008
S1130FD090E078D090936E0180936D0187E090E06B
S1130FE071D0909345018093440180E890E06AD0E9
S1130FF0909347018093460180E890E063D09093FA
S11310006C0180936B0180E890E05CD09093430185
S113101080934201BFD165E070E015D055DB909319
S11310206A018093690161E070E080E090E0A5DDF1
S113103044DDB4DD45DEDEDD809141018823E1F34A
S113104010924101F6CF97FB072E16F4009406D0B8
S113105077FD08D023D007FC05D03EF49095819508
S11310609F4F0895709561957F4F0895EE0FFF1F70
S11310700024001C0BBE0790F691E02D0994A29F5A
S1131080B001B39FC001A39F700D811D1124911D58
S1131090B29F700D811D1124911D0895AA1BBB1BC5
S11310A051E107C0AA1FBB1FA617B70710F0A61B64
S11310B0B70B881F991F5A95A9F780959095BC0185
S11310C0CD0108950F931F93CF93DF938230910541
S11310D010F482E090E0E0917101F091720120E05F
S11310E030E0A0E0B0E0309719F1408151810281F5
S11310F0138148175907C8F08417950769F41097A6
S113110031F012960C93129713961C9327C00093F8
S113111071011093720122C02115310519F0421793
S1131120530718F49A01BD01EF01DF01F801DBCF89
S113113021153105F9F0281B390B2430310580F4D1
S11311408A819B816115710521F0FB019383828360
S113115004C09093720180937101FE01329644C0E1
S1131160FE01E20FF31F81939193225031093983D9
S113117028833AC020916F0130917001232B41F4F0
S113118020910201309103013093700120936F018B
S113119020910001309101012115310541F42DB751
S11311A03EB74091040150910501241B350BE09199
S11311B06F01F0917001E217F307A0F42E1B3F0BAF
S11311C02817390778F0AC014E5F5F4F24173507B5
S11311D048F04E0F5F1F5093700140936F0181934D
S11311E0919302C0E0E0F0E0CF01DF91CF911F9135
S11311F00F910895CF93DF93009709F481C0FC0108
S1131200329713821282A0917101B09172011097EA
S113121081F420813181820F931F20916F013091DD
S113122070012817390751F5F0937001E0936F01AD
S113123067C0ED0120E030E0CE17DF0740F44A81BB
S11312405B819E0141155105F1F0EA01F5CFD3838D
S1131250C28340815181840F951FC817D90759F45F
S113126088819981840F951F0296918380838A8156
S11312709B81938382832115310529F4F0937201B4
S1131280E09371013DC0E901FB83EA8349915991DF
S1131290C40FD51FEC17FD0761F480819181840F81
S11312A0951F0296E90199838883828193819B83A8
S11312B08A83E0E0F0E012968D919C911397009759
S11312C019F0FD01DC01F7CF8D919C9111979D01DF
S11312D02E5F3F4F820F931F20916F013091700159
S11312E02817390769F4309729F410927201109283
S11312F0710102C013821282B0937001A0936F0136
S1131300DF91CF9108958F929F92AF92BF92CF9227
S1131310DF92EF92FF92CF93DF93EC0168817981A2
S11313208A819B81611571058105910521F464E22F
S113133079ED8BE597E02DE133EF41E050E038D0D3
S113134049015A019B01AC01A7EAB1E44DD06B01FC
S11313507C01ACEEB4EFA501940152D0DC01CB01C9
S11313608C0D9D1DAE1DBF1DB7FF03C00197A109C4
S1131370B04888839983AA83BB839F77DF91CF91F9
S1131380FF90EF90DF90CF90BF90AF909F908F90A1
S11313900895B9CF86E091E0B6CFA0E0B0E08093A5
S11313A0060190930701A0930801B09309010895E1
S11313B0052E97FB16F400940FD057FD05D024D0CA
S11313C007FC02D046F408C050954095309521950D
S11313D03F4F4F4F5F4F089590958095709561955D
S11313E07F4F8F4F9F4F08954ADEA59F900DB49F66
S11313F0900DA49F800D911D11240895B7FFF4CF83
S1131400F3DF821B930B0895A1E21A2EAA1BBB1BC8
S1131410FD010DC0AA1FBB1FEE1FFF1FA217B307BC
S1131420E407F50720F0A21BB30BE40BF50B661FD2
S1131430771F881F991F1A9469F760957095809596
S113144090959B01AC01BD01CF010895F894FFCFA5
S113145000007301200001000000010000000000F2
S113146001000101000100FF000000010002000072
S113147000FF00FE0100000000FF00010100000069
S109148000FF0100010160
S9030000FC
