:1000000045C0000060C000005EC000005CC0000091
:100010005AC0000058C0000056C0000054C0000084
:1000200052C0000050C000004EC000004CC0000094
:100030004AC00000A6C2000046C0000044C0000044
:1000400042C0000040C000003EC000003CC00000B4
:100050003AC0000038C0000036C0000034C00000C4
:1000600032C0000030C000002EC000002CC00000D4
:100070002AC0000028C0000026C0000024C00000E4
:1000800022C0000020C000001EC0000011241FBEBE
:10009000CFEFD0E4DEBFCDBF11E0A0E0B1E0E8E1FA
:1000A000F9E000E00BBF02C007900D92AA30B10743
:1000B000D9F721E0AAE0B1E001C01D92A434B20753
:1000C000E1F7C7D227C49CCF181619065CF0089533
:1000D000000021503109E1F74F5F5F4F841795070A
:1000E00019F4089540E050E027E033E0F1CF5E9846
:1000F00088B95F9A00005F9882E090E0E5CF0895AC
:1001000081E0F5CF0895813118F48158F0CF08953A
:100110008155EDCF089584E690E0D6DF88E3E7DFF0
:1001200086E0E5DF8FE0E3DF81E0E1DF8AE090E079
:10013000CBCF08955E9A88B95F9A00005F9881E0FE
:1001400090E0C2CF08950F931F93CF93DF93182FA2
:10015000EB01D6DF8881882351F001E0010F812F68
:10016000D2DF8991E7DF102F88818111F6CFDF91EF
:10017000CF911F910F910895EAE7F0E08081806CA4
:1001800080830895883048F4ECE7F0E09081987F10
:10019000908390818770892B80830895F3DFEAE74D
:1001A000F0E0808180648083808186FDFDCF809136
:1001B00078009091790008952D98AFE0B0E0FC01AF
:1001C0000A2E02C0F695E7950A94E2F7FE2FF17029
:1001D000E0FF04C0E5B1EF2BE5B901C02898FB01B1
:1001E0000A2E02C0F695E7950A94E2F7FE2FF17009
:1001F000E0FF05C0E5B1FF0FFE2BF5B901C029985E
:10020000FA010A2E02C0F695E7950A94E2F7FE2F4E
:10021000F170E0FF06C0E5B1FF0FFF0FFE2BF5B94F
:1002200001C02A98F9010A2E02C0F695E7950A94B2
:10023000E2F7FE2FF170E0FF07C0E5B1FF0FFF0FFF
:10024000FF0FFE2BF5B901C02B98EAE0F0E00000AB
:100250003197E9F72F9AEAE0F0E000003197E9F7EB
:100260002F98EAE0F0E000003197E9F7119708F0E5
:10027000A6CF2D9A0895FC01808191818436910545
:1002800018F481E0858307C0893E934018F082E02E
:10029000858301C01582828193818436910518F48B
:1002A00083E086830AC0893E934018F084E0868309
:1002B00004C0168208951682089585818111FBCFAE
:1002C0000895CF93DF93EC0180E068DF9983888302
:1002D00081E064DF9B838A8380B183FB992790F957
:1002E00081E089278C83DF91CF910895EF92FF926F
:1002F0001F93CF93DF93C0913201D0913301E880F7
:10030000F980E1E1F1E09701ADECBCECD3D1AC01B7
:100310005695479556954795569547959A01220FBC
:10032000331FCA01880F991F880F991F880F991FC3
:10033000820F931F9701281B390BC901805D8383AE
:100340009A01B8D1969587959695879596958795B4
:100350009C01220F331F880F991F880F991F880F48
:10036000991F820F931F481B590B405D42839701D1
:100370003695279536952795ABE7B4E19BD1AC012F
:10038000569547959A01ADECBCEC94D1969587951E
:1003900096958795969587959C01220F331F880F18
:1003A000991F880F991F880F991F820F931F481B51
:1003B000590B405D418397013695279536952795D2
:1003C00036952795A5ECB0E275D1AC0152954295D2
:1003D0004F7045275F7045279A01ADECBCEC6AD1A0
:1003E0009695879596958795969587959C01220F6A
:1003F000331F880F991F880F991F880F991F820F2D
:10040000931F481B590B405D408310E21483EA8020
:10041000FB8097014FD1AC0156954795569547956E
:10042000569547959A01220F331FCA01880F991FCD
:10043000880F991F880F991F820F931F9701281B00
:10044000390BC901805D80879A0134D196958795D3
:1004500096958795969587959C01220F331F880F57
:10046000991F880F991F880F991F820F931F481B90
:10047000590B405D4783970136952795369527950B
:10048000ABE7B4E117D1AC01569547959A01ADECB5
:10049000BCEC10D1969587959695879596958795FE
:1004A0009C01220F331F880F991F880F991F880FF7
:1004B000991F820F931F481B590B405D468397017C
:1004C000369527953695279536952795A5ECB0E274
:1004D000F1D0AC01529542954F7045275F7045278A
:1004E0009A01ADECBCECE6D09695879596958795EC
:1004F000969587959C01220F331F880F991F880FAF
:10050000991F880F991F820F931F481B590B405D3D
:10051000458311878C81811102C080E301C081E392
:10052000E1E1F1E082871386BF0181E00CDEDF911B
:10053000CF911F91FF90EF9008958BE08093810001
:100540008DE790E0909389008093880082E080930B
:100550006F001092850010928400809106019091A6
:100560000701A0910801B091090180930A019093BD
:100570000B01A0930C01B0930D018FB780688FBF62
:1005800008951F920F920FB60F9211248F939F938D
:10059000AF93BF9380910A0190910B01A0910C0140
:1005A000B0910D010197A109B10980930A019093BF
:1005B0000B01A0930C01B0930D01892B8A2B8B2B7F
:1005C00099F481E080930E018091060190910701DA
:1005D000A0910801B091090180930A0190930B0149
:1005E000A0930C01B0930D01BF91AF919F918F919A
:1005F0000F900FBE0F901F90189560930601709397
:100600000701809308019093090160930A01709398
:100610000B0180930C0190930D01089580910F01BF
:10062000909110014EDE80910F019091100123DE18
:10063000809132019091330120910F01309110018E
:1006400030933301209332019093100180930F0176
:10065000089511B88FEF82B984B915B887B918B861
:100660008AB91BB889DD57DD87E090E032D09093DE
:1006700033018093320187E090E02BD090931001FA
:1006800080930F0164E670E080E090E0B6DF55DF14
:10069000C5DF2CDE2FEF3FEF4FEF5FEF6FEF7FEF08
:1006A0008FEF9FEF89DD80910E018823E1F3109297
:1006B0000E01EECFA29FB001B39FC001A39F700DAA
:1006C000811D1124911DB29F700D811D1124911D5A
:1006D00008950F931F93CF93DF938230910510F409
:1006E00082E090E0E0914201F091430120E030E0AF
:1006F000A0E0B0E0309719F140815181028113816F
:1007000048175907C8F08417950769F4109731F016
:1007100012960C93129713961C9327C000934201D4
:100720001093430122C02115310519F042175307D8
:1007300018F49A01BD01EF01DF01F801DBCF2115AB
:100740003105F9F0281B390B2430310580F48A81FA
:100750009B816115710521F0FB019383828304C0A5
:100760009093430180934201FE01329644C0FE0102
:10077000E20FF31F8193919322503109398328832B
:100780003AC02091400130914101232B41F4209146
:1007900002013091030130934101209340012091E7
:1007A0000001309101012115310541F42DB73EB70B
:1007B0004091040150910501241B350BE09140014B
:1007C000F0914101E217F307A0F42E1B3F0B28170D
:1007D000390778F0AC014E5F5F4F2417350748F0BA
:1007E0004E0F5F1F509341014093400181939193BD
:1007F00002C0E0E0F0E0CF01DF91CF911F910F91B7
:100800000895CF93DF93009709F481C0FC013297DC
:1008100013821282A0914201B0914301109781F49A
:1008200020813181820F931F20914001309141013D
:100830002817390751F5F0934101E093400167C053
:10084000ED0120E030E0CE17DF0740F44A815B8104
:100850009E0141155105F1F0EA01F5CFD383C28322
:1008600040815181840F951FC817D90759F4888199
:100870009981840F951F0296918380838A819B8141
:10088000938382832115310529F4F0934301E0938A
:1008900042013DC0E901FB83EA8349915991C40FAC
:1008A000D51FEC17FD0761F480819181840F951F9E
:1008B0000296E90199838883828193819B838A834D
:1008C000E0E0F0E012968D919C911397009719F05B
:1008D000FD01DC01F7CF8D919C9111979D012E5F59
:1008E0003F4F820F931F2091400130914101281703
:1008F000390769F4309729F41092430110924201AC
:1009000002C013821282B0934101A0934001DF9193
:08091000CF910895F894FFCF88
:0A091800000044012000010000006F
:00000001FF
