:100000004DC0000068C0000066C0000064C0000071
:1000100062C0000060C000005EC000005CC0000064
:100020005AC0000058C0000056C0000054C0000074
:1000300052C000007AC100004EC000004CC0000059
:100040004AC0000048C0000046C0000044C0000094
:1000500042C0000040C000003EC000003CC00000A4
:100060003AC0000038C0000036C0000034C00000B4
:1000700032C0000030C000002EC000002CC00000C4
:100080002AC0000028C0000026C0000020011D0179
:100090001A011701140111010E010B0111241FBED9
:1000A000CFEFD0E4DEBFCDBF11E0A0E0B1E0ECE5E2
:1000B000F7E000E00BBF02C007900D92AA30B10735
:1000C000D9F721E0AAE0B1E001C01D92A834B2073F
:1000D000E1F778D141C394CF181619065CF0089562
:1000E000000021503109E1F74F5F5F4F84179507FA
:1000F00019F4089540E050E027E033E0F1CF5E9836
:1001000088B95F9A00005F9882E090E0E5CF08959B
:1001100084E690E0E1DF88E3F2DF86E0F0DF8FE065
:10012000EEDF81E0ECDF8AE090E0D6CF0895EAE7E9
:10013000F0E08081806C808308952D98AFE0B0E07E
:10014000FC010A2E02C0F695E7950A94E2F7FE2F0D
:10015000F170E0FF04C0E5B1EF2BE5B901C02898CC
:10016000FB010A2E02C0F695E7950A94E2F7FE2FEE
:10017000F170E0FF05C0E5B1FF0FFE2BF5B901C03E
:100180002998FA010A2E02C0F695E7950A94E2F73B
:10019000FE2FF170E0FF06C0E5B1FF0FFF0FFE2B51
:1001A000F5B901C02A98F9010A2E02C0F695E79523
:1001B0000A94E2F7FE2FF170E0FF07C0E5B1FF0FF0
:1001C000FF0FFF0FFE2BF5B901C02B98EAE0F0E01E
:1001D00000003197E9F72F9AEAE0F0E0000031974C
:1001E000E9F72F98EAE0F0E000003197E9F711977E
:1001F00008F0A6CF2D9A0895EF92FF920F931F93C8
:10020000CF93DF93CDB7DEB78770482F50E0FA0168
:10021000EA5BFF4F77C14FEF50E814C04FEF50E457
:1002200011C04FEF50E20EC04FEF50E10BC04FEF47
:1002300058E008C04FEF54E005C04FEF52E002C055
:100240004FEF51E0E9E0F0E0EC0FFD1F90E1899FF6
:10025000E00DF11D11243896042F152F80E090E059
:100260006FEF7FEFEE24E394F12CDC0118963191CF
:10027000332341F130FF0CC0D701082E02C0AA0F72
:10028000BB1F0A94E2F7A095B0956A237B231AC09E
:1002900032FF0CC09701082E02C0220F331F0A94B0
:1002A000E2F720953095022313230CC031FF0AC0DA
:1002B000970102C0220F331FAA95E2F720953095CF
:1002C0006223732301968830910579F698018FEFA8
:1002D0009FEF33DFDF91CF911F910F91FF90EF9050
:1002E00008958BE0809381008DE790E090938900E2
:1002F0008093880082E080936F00109285001092B6
:1003000084008091060190910701A0910801B091AD
:10031000090180930A0190930B01A0930C01B09303
:100320000D018FB780688FBF08951F920F920FB68F
:100330000F9211248F939F93AF93BF9380910A01E3
:1003400090910B01A0910C01B0910D010197A109B1
:10035000B10980930A0190930B01A0930C01B09313
:100360000D01892B8A2B8B2B99F481E080930E0150
:100370008091060190910701A0910801B0910901B7
:1003800080930A0190930B01A0930C01B0930D018F
:10039000BF91AF919F918F910F900FBE0F901F90C3
:1003A000189560930601709307018093080190935C
:1003B000090160930A0170930B0180930C019093E3
:1003C0000D01089511B88FEF82B984B915B887B9B6
:1003D00018B88AB91BB8ABDE9BDE87E090E09BD0F3
:1003E000909337018093360187E090E094D090930A
:1003F000100180930F0180E890E08DD0D82FC92F95
:10040000809311019093120180E890E084D0909342
:100410003501809334012D2F3C2F80E090E071E076
:1004200062E011C040FD02C0608301C070834F5F75
:100430005F4F31964A175B07A9F70196205F3F4F40
:100440008830910529F0AC01DC015096F901EACF22
:1004500061E070E080E090E0A4DF43DF20E030E086
:1004600000E010E02830310519F5E0911101F0911C
:1004700012018DB79EB7805891090FB6F8949EBFB0
:100480000FBE8DBFADB7BEB7119680E801900D923B
:100490008A95E1F780E0B0DE8DB79EB780589F4F18
:1004A0000FB6F8949EBF0FBE8DBF202F312F23C0F3
:1004B000E9012196E0911101F09112018DB79EB7EB
:1004C000805891090FB6F8949EBF0FBE8DBFADB78F
:1004D000BEB7119680E801900D928A95E1F7822FC0
:1004E0008BDE8DB79EB780589F4F0FB6F8949EBF96
:1004F0000FBE8DBF9E0190910E019923E1F31092E2
:100500000E01B0CFEE0FFF1F0024001C0BBE0790A2
:10051000F691E02D09940F931F93CF93DF938230D0
:10052000910510F482E090E0E0914601F0914701DE
:1005300020E030E0A0E0B0E0309719F14081518137
:100540000281138148175907C8F08417950769F489
:10055000109731F012960C93129713961C9327C0A4
:10056000009346011093470122C02115310519F06F
:100570004217530718F49A01BD01EF01DF01F8019A
:10058000DBCF21153105F9F0281B390B243031055B
:1005900080F48A819B816115710521F0FB019383B1
:1005A000828304C09093470180934601FE013296F6
:1005B00044C0FE01E20FF31F819391932250310951
:1005C000398328833AC02091440130914501232B7F
:1005D00041F42091020130910301309345012093B1
:1005E000440120910001309101012115310541F4B0
:1005F0002DB73EB74091040150910501241B350BE6
:10060000E0914401F0914501E217F307A0F42E1B9D
:100610003F0B2817390778F0AC014E5F5F4F241766
:10062000350748F04E0F5F1F50934501409344013A
:100630008193919302C0E0E0F0E0CF01DF91CF9190
:100640001F910F910895CF93DF93009709F481C014
:10065000FC01329713821282A0914601B0914701AA
:10066000109781F420813181820F931F20914401E2
:10067000309145012817390751F5F0934501E09372
:10068000440167C0ED0120E030E0CE17DF0740F401
:100690004A815B819E0141155105F1F0EA01F5CFD8
:1006A000D383C28340815181840F951FC817D90716
:1006B00059F488819981840F951F029691838083D4
:1006C0008A819B81938382832115310529F4F093DC
:1006D0004701E09346013DC0E901FB83EA8349916C
:1006E0005991C40FD51FEC17FD0761F480819181EA
:1006F000840F951F0296E9019983888382819381F3
:100700009B838A83E0E0F0E012968D919C91139791
:10071000009719F0FD01DC01F7CF8D919C911197A5
:100720009D012E5F3F4F820F931F20914401309116
:1007300045012817390769F4309729F410924701C9
:100740001092460102C013821282B0934501A09319
:0C0750004401DF91CF910895F894FFCF91
:0A075C000000480120000100000029
:00000001FF
