:100000004DC0000068C0000066C0000064C0000071
:1000100062C0000060C000005EC000005CC0000064
:100020005AC0000058C0000056C0000054C0000074
:1000300052C000000DC200004EC000004CC00000C5
:100040004AC0000048C0000046C0000044C0000094
:1000500042C0000040C000003EC000003CC00000A4
:100060003AC0000038C0000036C0000034C00000B4
:1000700032C0000030C000002EC000002CC00000C4
:100080002AC0000028C0000026C000007B017801C3
:10009000750172016F016C016901660111241FBEB7
:1000A000CFEFD0E4DEBFCDBF11E0A0E0B1E0E6E2EB
:1000B000F9E000E00BBF02C007900D92AA30B10733
:1000C000D9F721E0AAE0B1E001C01D92AE33B2073A
:1000D000E1F78CD226C494CF181619065CF0089567
:1000E000000021503109E1F74F5F5F4F84179507FA
:1000F00019F4089540E050E027E033E0F1CF5E9836
:1001000088B95F9A00005F9882E090E0E5CF08959B
:1001100084E690E0E1DF88E3F2DF86E0F0DF8FE065
:10012000EEDF81E0ECDF8AE090E0D6CF0895EAE7E9
:10013000F0E08081806C80830895883048F4ECE79B
:10014000F0E09081987F908390818770892B8083E5
:100150000895F3DFEAE7F0E08081806480838081A6
:1001600086FDFDCF809178009091790008952D98BB
:10017000AFE0B0E0FC010A2E02C0F695E7950A94C4
:10018000E2F7FE2FF170E0FF04C0E5B1EF2BE5B917
:1001900001C02898FB010A2E02C0F695E7950A9443
:1001A000E2F7FE2FF170E0FF05C0E5B1FF0FFE2B77
:1001B000F5B901C02998FA010A2E02C0F695E79513
:1001C0000A94E2F7FE2FF170E0FF06C0E5B1FF0FE1
:1001D000FF0FFE2BF5B901C02A98F9010A2E02C0C3
:1001E000F695E7950A94E2F7FE2FF170E0FF07C05D
:1001F000E5B1FF0FFF0FFF0FFE2BF5B901C02B98E4
:10020000EAE0F0E000003197E9F72F9AEAE0F0E049
:1002100000003197E9F72F98EAE0F0E0000031970D
:10022000E9F7119708F0A6CF2D9A0895FC01808177
:1002300091818436910518F481E0858307C0893E59
:10024000934018F082E0858301C0158282819381FA
:100250008436910518F483E086830AC0893E934072
:1002600018F084E0868304C01682089516820895EB
:1002700085818111FBCF0895CF93DF93EC0180E05E
:1002800068DF9983888381E064DF9B838A8380B100
:1002900083FB992790F981E089278C83DF91CF91A7
:1002A00008958F929F92AF92BF92CF92DF92EF927A
:1002B000FF920F931F93CF93DF93CDB7DEB7877075
:1002C000482F50E0FA01EA5BFF4F01C24FEF50E8C0
:1002D00014C04FEF50E411C04FEF50E20EC04FEF8B
:1002E00050E10BC04FEF58E008C04FEF54E005C09D
:1002F0004FEF52E002C04FEF51E00F2EFFE08F2E84
:10030000912CF02D8C0E9D1E10E1819F800C911C74
:1003100011249A01E0E0F0E06FEF7FEF8FEF9FEFA5
:10032000CC24C394D12C5F01A8E0AA0EB11C840197
:10033000D4011896FC90F0FE0CC076010E2E02C07F
:10034000EE0CFF1C0A94E2F7E094F0946E217F21FA
:100350001BC0F2FE0CC076010E2E02C0EE0CFF1C7C
:100360000A94E2F7E094F0942E213F210DC0F1FEB3
:100370000BC076010A2C02C0EE0CFF1C0A94E2F7B7
:10038000E094F0946E217F21D8011C91BFEF8B1A6D
:100390009B0A10FF0CC086010E2E02C0000F111F19
:1003A0000A94E2F700951095802391231AC012FF5A
:1003B0000CC086010E2E02C0000F111F0A94E2F736
:1003C00000951095402351230CC011FF0AC08601EF
:1003D00002C0000F111FAA94E2F700951095802328
:1003E00091233196E830F10509F09DCFC0DEDF9111
:1003F000CF911F910F91FF90EF90DF90CF90BF9022
:10040000AF909F908F9008958BE0809381008DE74F
:1004100090E0909389008093880082E080936F0041
:10042000109285001092840080910601909107013E
:10043000A0910801B091090180930C0190930D01E6
:10044000A0930E01B0930F018FB780688FBF0895FE
:100450001F920F920FB60F9211248F939F93AF9319
:10046000BF9380910C0190910D01A0910E01B0916C
:100470000F010197A109B10980930C0190930D011F
:10048000A0930E01B0930F01892B8A2B8B2B99F42B
:1004900081E0809310018091060190910701A09165
:1004A0000801B091090180930C0190930D01A09374
:1004B0000E01B0930F01BF91AF919F918F910F905B
:1004C0000FBE0F901F90189560930601709307015F
:1004D000809308019093090160930C0170930D01C2
:1004E00080930E0190930F010895809111019091D6
:1004F0001201C2DE809111019091120197DE80916C
:1005000038019091390120911101309112013093FD
:1005100039012093380190931201809311010895BD
:10052000CF93DF93CDB7DEB7C058D1090FB6F8949B
:10053000DEBF0FBECDBF80910A0190910B014497A1
:1005400029F5209113013091140180E8F901DE01B1
:10055000119601900D928A95E1F7E0913601F091A4
:10056000370180E8D90101900D928A95E1F7A091B9
:100570003601B091370180E8FE01319601900D926D
:100580008A95E1F710920B0110920A01E091130194
:10059000F091140180910A0190910B019C012F5F51
:1005A0003F4F30930B0120930A012DB73EB72058DF
:1005B00031090FB6F8943EBF0FBE2DBFADB7BEB721
:1005C000119690E801900D929A95E1F76ADE0FB6C8
:1005D000F894DEBF0FBECDBFC058DF4F0FB6F89402
:1005E000DEBF0FBECDBFDF91CF91089511B88FEF61
:1005F00082B984B915B887B918B88AB91BB897DD1C
:1006000087DD87E090E06CD09093390180933801CA
:1006100087E090E065D0909312018093110180E80B
:1006200090E05ED0D82FC92F8093130190931401CE
:1006300080E890E055D080933601909337014D2F9C
:100640005C2F20E030E0A2E018C060FD02C0A08373
:1006500001C0A0836F5F7F4F3196C617D707A9F7F8
:100660002F5F3F4F405F5F4F2830310531F4282F17
:10067000392F80E090E064E016C0B901E90160968E
:10068000FA01E3CF40FD02C0608301C060834F5F89
:100690005F4F31964A175B07A9F70196205F3F4FDE
:1006A0008830910529F0AC01DC015096F901EACFC0
:1006B00061E070E080E090E007DFA6DE16DF30DF6B
:1006C000809110018823E1F310921001F7CFEE0F13
:1006D000FF1F0024001C0BBE0790F691E02D09942B
:1006E0000F931F93CF93DF938230910510F482E034
:1006F00090E0E0913C01F0913D0120E030E0A0E08D
:10070000B0E0309719F1408151810281138148177F
:100710005907C8F08417950769F4109731F01296BD
:100720000C93129713961C9327C000933C011093CF
:100730003D0122C02115310519F04217530718F465
:100740009A01BD01EF01DF01F801DBCF2115310571
:10075000F9F0281B390B2430310580F48A819B8104
:100760006115710521F0FB019383828304C090938E
:100770003D0180933C01FE01329644C0FE01E20F30
:10078000F31F8193919322503109398328833AC012
:1007900020913A0130913B01232B41F42091020139
:1007A0003091030130933B0120933A0120910001E5
:1007B000309101012115310541F42DB73EB740912B
:1007C000040150910501241B350BE0913A01F09191
:1007D0003B01E217F307A0F42E1B3F0B2817390744
:1007E00078F0AC014E5F5F4F2417350748F04E0F8D
:1007F0005F1F50933B0140933A018193919302C054
:10080000E0E0F0E0CF01DF91CF911F910F910895CB
:10081000CF93DF93009709F481C0FC0132971382D4
:100820001282A0913C01B0913D01109781F420818A
:100830003181820F931F20913A0130913B0128179B
:10084000390751F5F0933B01E0933A0167C0ED01A0
:1008500020E030E0CE17DF0740F44A815B819E0143
:1008600041155105F1F0EA01F5CFD383C2834081F0
:100870005181840F951FC817D90759F48881998130
:10088000840F951F0296918380838A819B81938335
:1008900082832115310529F4F0933D01E0933C0159
:1008A0003DC0E901FB83EA8349915991C40FD51FEB
:1008B000EC17FD0761F480819181840F951F0296EA
:1008C000E90199838883828193819B838A83E0E015
:1008D000F0E012968D919C911397009719F0FD010D
:1008E000DC01F7CF8D919C9111979D012E5F3F4FB9
:1008F000820F931F20913A0130913B01281739074D
:1009000069F4309729F410923D0110923C0102C025
:1009100013821282B0933B01A0933A01DF91CF91F1
:060920000895F894FFCFDA
:0A09260000003E0120000100000067
:00000001FF
