:1000000045C0000060C000005EC000005CC0000091
:100010005AC0000058C0000056C0000054C0000084
:1000200052C0000050C000004EC000004CC0000094
:100030004AC00000F3C0000046C0000044C00000F9
:1000400042C0000040C000003EC000003CC00000B4
:100050003AC0000038C0000036C0000034C00000C4
:1000600032C0000030C000002EC000002CC00000D4
:100070002AC0000028C0000026C0000024C00000E4
:1000800022C0000020C000001EC0000011241FBEBE
:10009000CFEFD0E4DEBFCDBF11E0A0E0B1E0EEEEE7
:1000A000F7E000E00BBF02C007900D92AA30B10745
:1000B000D9F721E0AAE0B1E001C01D92A434B20753
:1000C000E1F714D192C39CCF181619065CF008957D
:1000D000000021503109E1F74F5F5F4F841795070A
:1000E00019F4089540E050E027E033E0F1CF5E9846
:1000F00088B95F9A00005F9882E090E0E5CF0895AC
:1001000084E690E0E1DF88E3F2DF86E0F0DF8FE075
:10011000EEDF81E0ECDF8AE090E0D6CF0895EAE7F9
:10012000F0E08081806C80830895883048F4ECE7AB
:10013000F0E09081987F908390818770892B8083F5
:100140000895F3DFEAE7F0E08081806480838081B6
:1001500086FDFDCF80917800909179000895FC0193
:10016000808191818436910518F481E0858307C0F0
:10017000893E934018F082E0858301C01582828118
:1001800093818436910518F483E086830AC0893E02
:10019000934018F084E0868304C016820895168286
:1001A000089585818111FBCF0895CF93DF93EC01F2
:1001B00080E0C7DF9983888381E0C3DF9B838A83E4
:1001C00080B183FB992790F981E089278C83DF91A7
:1001D000CF9108958BE0809381008DE790E090931C
:1001E00089008093880082E080936F0010928500E0
:1001F000109284008091060190910701A09108015E
:10020000B091090180930A0190930B01A0930C0116
:10021000B0930D018FB780688FBF08951F920F9222
:100220000FB60F9211248F939F93AF93BF9380913A
:100230000A0190910B01A0910C01B0910D01019761
:10024000A109B10980930A0190930B01A0930C01BD
:10025000B0930D01892B8A2B8B2B99F481E080932D
:100260000E018091060190910701A0910801B091C3
:10027000090180930A0190930B01A0930C01B093A4
:100280000D01BF91AF919F918F910F900FBE0F9075
:100290001F901895609306017093070180930801E1
:1002A0009093090160930A0170930B0180930C01F4
:1002B00090930D01089580910F019091100175DFC9
:1002C00080910F01909110014ADF8091320190914D
:1002D000330120910F0130911001309333012093AD
:1002E00032019093100180930F01089511B88FEFA0
:1002F00082B984B915B887B918B88AB91BB80FDFA5
:10030000FFDE87E090E050D190933301809332017B
:1003100087E090E049D19093100180930F010F2E58
:10032000F4E3EF2EF1E0FF2EF02D00E010E00F2EB1
:10033000FAE0CF2ED12CF02D84E090E035D1EC0105
:100340005701F70191838083D982C88288E290E0C7
:100350002BD19B838A83B801012E000C880B990B4B
:1003600034D020E030E046E153E4BBD020E030E080
:10037000A0E0B0E0EA81FB81E20FF31F60837183AC
:10038000828393831196F501C081D1812C5F3F4F09
:1003900048815981A417B5076CF30F5F1F4FF2E036
:1003A000EF0EF11C0630110539F664E670E080E0CE
:1003B00090E070DF0FDF7FDF80910E018823E1F393
:1003C00010920E01F8CFE89409C097FB3EF4909587
:1003D0008095709561957F4F8F4F9F4F9923A9F01E
:1003E000F92F96E9BB279395F695879577956795AD
:1003F000B795F111F8CFFAF4BB0F11F460FF1BC0F1
:100400006F5F7F4F8F4F9F4F16C0882311F096E983
:1004100011C0772321F09EE8872F762F05C0662331
:1004200071F096E8862F70E060E02AF09A95660FEA
:10043000771F881FDAF7880F9695879597F90895A3
:1004400097F99F6780E870E060E008959FEF80EC87
:10045000089500240A94161617061806090608952A
:1004600000240A9412161306140605060895092E90
:100470000394000C11F4882352F0BB0F40F4BF2BFF
:1004800011F460FF04C06F5F7F4F8F4F9F4F08953F
:1004900057FD9058440F551F59F05F3F71F0479535
:1004A000880F97FB991F61F09F3F79F0879508951A
:1004B000121613061406551FF2CF4695F1DF08C039
:1004C000161617061806991FF1CF86957105610556
:1004D00008940895E894BB2766277727CB0197F9FE
:1004E00008950BD0C4CFB5DF28F0BADF18F09523FC
:1004F00009F0A6CFABCF1124EECFCADFA0F3959FB2
:10050000D1F3950F50E0551F629FF001729FBB27FA
:10051000F00DB11D639FAA27F00DB11DAA1F649FA6
:100520006627B00DA11D661F829F2227B00DA11D59
:10053000621F739FB00DA11D621F839FA00D611DDF
:10054000221F749F3327A00D611D231F849F600D00
:10055000211D822F762F6A2F11249F5750408AF039
:10056000E1F088234AF0EE0FFF1FBB1F661F771FC5
:10057000881F91505040A9F79E3F510570F060CF01
:10058000AACF5F3FECF3983EDCF3869577956795AD
:10059000B795F795E7959F5FC1F7FE2B880F911DE3
:1005A0009695879597F908950F931F93CF93DF93AF
:1005B0008230910510F482E090E0E0914201F091E8
:1005C000430120E030E0A0E0B0E0309719F1408135
:1005D00051810281138148175907C8F08417950784
:1005E00069F4109731F012960C93129713961C939E
:1005F00027C0009342011093430122C02115310509
:1006000019F04217530718F49A01BD01EF01DF01F9
:10061000F801DBCF21153105F9F0281B390B243007
:10062000310580F48A819B816115710521F0FB0100
:100630009383828304C09093430180934201FE011F
:10064000329644C0FE01E20FF31F81939193225032
:100650003109398328833AC020914001309141010A
:10066000232B41F420910201309103013093410189
:1006700020934001209100013091010121153105A5
:1006800041F42DB73EB74091040150910501241B60
:10069000350BE0914001F0914101E217F307A0F41E
:1006A0002E1B3F0B2817390778F0AC014E5F5F4FC8
:1006B0002417350748F04E0F5F1F509341014093B8
:1006C00040018193919302C0E0E0F0E0CF01DF911F
:1006D000CF911F910F910895CF93DF93009709F465
:1006E00081C0FC01329713821282A0914201B09125
:1006F0004301109781F420813181820F931F209153
:100700004001309141012817390751F5F09341011B
:10071000E093400167C0ED0120E030E0CE17DF0735
:1007200040F44A815B819E0141155105F1F0EA01D7
:10073000F5CFD383C28340815181840F951FC817A1
:10074000D90759F488819981840F951F0296918366
:1007500080838A819B81938382832115310529F4CB
:10076000F0934301E09342013DC0E901FB83EA833A
:1007700049915991C40FD51FEC17FD0761F4808191
:100780009181840F951F0296E90199838883828164
:1007900093819B838A83E0E0F0E012968D919C9197
:1007A0001397009719F0FD01DC01F7CF8D919C9113
:1007B00011979D012E5F3F4F820F931F20914001A3
:1007C000309141012817390769F4309729F41092C4
:1007D00043011092420102C013821282B093410180
:0E07E000A0934001DF91CF910895F894FFCFD0
:0A07EE00000044012000010000009B
:00000001FF
